:020000040800F2
:1000000088080020C5020008814B0008493E00080E
:100010007D4B0008E50E0008257500080000000073
:10002000000000000000000000000000916B0008CC
:10003000E90E000800000000854B0008956B0008E1
:10004000DF020008DF020008DF020008DF0200080C
:10005000DF020008DF020008DF020008DF020008FC
:10006000DF020008DF020008DF020008DF020008EC
:10007000DF020008DF020008DF020008DF020008DC
:10008000DF02000800000000DF020008DF020008B5
:10009000DF020008DF020008DF020008DF020008BC
:1000A000DF020008DF020008DF020008DF020008AC
:1000B000DF020008AD6B0008DF020008DF02000865
:1000C000DF020008DF020008DF020008DF0200088C
:1000D000DF02000819750008DF020008DF020008CF
:1000E000DF020008DF020008DF020008DF0200086C
:1000F000DF020008DF020008DF0200080000000045
:1001000000000000DF02000800000000DF0200081D
:10011000DF02000800000000DF020008DF02000824
:10012000DF020008DF020008DF020008DF0200082B
:10013000DF0200080000000000000000DF020008ED
:10014000DF020008DF0200080000000000000000DD
:10015000000000000000000000000000000000009F
:10016000000000000000000000000000DF020008A6
:10017000DF02000800000000000000000000000096
:1001800000000000DF020008000000000000000086
:10019000000000000000000000000000000000005F
:1001A0000000000000000000DF020008DF0200087D
:1001B000DF020008DF020008DF0200080000000084
:1001C00000000000DF020008000000000000000046
:1001D000DF020008DF02000800F002F800F062F819
:1001E00014A696E8000CB244B344DA4501D100F0FD
:1001F00059F8BAE80F000FA696E83000A5EB040501
:1002000004EB0607AAEB0704A7F101074FEA15154F
:100210004FEA3414A4F10104AC4201D300F042F8D7
:1002200013F0010F18BFFB1A43F0010300F001F8AF
:10023000DBE718477897000098970000103A24BF32
:1002400078C878C1FAD8520724BF30C830C144BF3B
:1002500004680C6070470000704700000023002411
:1002600000250026103A28BF78C1FBD8520728BFC6
:1002700030C148BF0B607047662908F024826429AA
:1002800000F0CC80002070471FB508F00FFA00F096
:1002900037FC04000020002107F05AFFE0601FBD7A
:1002A00010B510BD00F02CFD1146FFF7EDFF07F073
:1002B0005BF900F04AFD03B4FFF7F2FF03BC00F066
:1002C0008DFD00000948804709480047FEE7FEE72A
:1002D000FEE7FEE7FEE7FEE7FEE7FEE7FEE7FEE7F6
:1002E00004480549054A064B70470000996B000811
:1002F000D901000888020020880800208804002016
:100300008804002053EA020C00F069802DE9F04BCC
:100310004FF00006002B1FBFB3FA83F503FA05F474
:1003200024FA05F65E4012BF1643B2FA82F502FACD
:1003300005F4C5F120051EBF22FA05FC44EA0C04B1
:10034000203556EA044C4FEA144418BF641C4FF0A1
:1003500000084FF00009904271EB030C39D30029DB
:1003600019BFB1FA81F701FA07F6B0FA80F700FA7F
:1003700007F6C7F120071EBF20FA07FC46EA0C0665
:100380002037B6FBF4FCA7EB0507103F07F01F0B67
:10039000CBF120062CFA06F60CFA0BFB44BFB34651
:1003A0000026202FA4BF5E464FF0000B5BEA060C30
:1003B00008BF4FF0010B19EB0B0948EB0608ABFB2C
:1003C000027C06FB02CC0BFB03CCC01B71EB0C01C7
:1003D000C1E70B46024641464846BDE8F08B13B5DF
:1003E000084318BF4FF0FF300146AFF30080BDE86F
:1003F0001C4070470FB41CB5074B06AA7B446946E6
:100400000090059800F063FB0020694600F072FB45
:100410001CBC5DF814FB0000F50600002DE9F0415E
:100420000646002410687529314616A510D0AFF392
:100430000080002802DA404213A507E031688A07ED
:1004400001D512A502E0490704D511A5012401E058
:10045000AFF3008000210A2206F1240709E0B0FB77
:10046000F2FCB0FBF2F302FB1C003030785418466B
:10047000491C0028F3D123462A463046BDE8F04106
:1004800000F0B9B8000000002D0000002B000000B3
:10049000200000002DE9F0474FF0000A894604468D
:1004A000C0F820A02046E1688847002876D025289B
:1004B00006D0D4E901219047206A401C2062F1E770
:1004C000E168204600258847C4F81CA0064600279E
:1004D000C4F818A02A2E09D0304607F031FE38B3F0
:1004E00004EB8708303EC8F8186019E059F8041B7F
:1004F000204604EB87029161E1688847012F064698
:1005000018D1E069002820DA25F020051DE0D8F890
:10051000180000EB800006EB40003038C8F81800E7
:100520002046E1688847064607F00AFE0028EED11B
:10053000012F0AD02E2E08D12046E16888477F1C63
:100540000646022F45F02005C4DBA069002803DA27
:10055000404245F00105A061E80701D025F01005F3
:10056000B6B1A6F14100192802D8203645F400653D
:100570004A463146204625604D46FFF77DFE58B17C
:10058000012806D0ED1D25F0070000F1080989E7D4
:1005900004E005F1040985E730468AE7206ABDE8F2
:1005A000F0874FF0000200B5134694469646203976
:1005B00022BFA0E80C50A0E80C50B1F12001BFF41C
:1005C000F7AF090728BFA0E80C5048BF0CC05DF882
:1005D00004EB890028BF40F8042B08BF704748BFD0
:1005E00020F8022B11F0804F18BF00F8012B704744
:1005F0007047704770472DE9F0470D46994692467F
:10060000044600F124080168880604D5E06921F059
:100610001001216000E00120A84201DD471B00E03D
:100620000027A1697A1902EB0900081AA061207855
:10063000C00602D42046AFF30080002608E0D4E9CB
:1006400001211AF806009047206A401C761C20629F
:100650004E45F4DB2078C0060AD52046AFF3008073
:1006600006E0D4E9012130209047206A401C206236
:10067000381EA7F10107F4DC07E0D4E9012118F8DE
:1006800005009047206A401C2062281EA5F1010544
:10069000F3DC2046AFF300802078000602D502206C
:1006A000BDE8F0870120FBE72DE9FF4F0C461E4611
:1006B0004FF0FF378BB0D2E90001DDF860800A907F
:1006C0008A46C1F30A5505B93D46002108464FF058
:1006D0000000BAF1000F00F4400005DA00EB8000E2
:1006E0004FF4400101EA50004FEA9059B9F1010F6F
:1006F00000DDB9460A9850EA4A000ED044F6105080
:10070000A5F2FF3545432F14B8F1000F1ED07542F6
:10071000291E1EDDC9F100021CE0B8F1010F4FF0E7
:10072000000001D0302103E0F24305E02154401CD9
:10073000B042FBDB30460022002121540B99C1F866
:100740000880C1E900200FB0BDE8F08FBD1B6D1C13
:10075000DEE74A4600DA694206A800F05BFA06AB1B
:1007600093E8070003AB83E8070050460A9907F0B7
:1007700007F98DE80700A0F500501F380090039896
:10078000002D0ADD42F21F014A460844002303A956
:100790000390684607F070FB09E0A0F500504A4658
:1007A0001F38002303A90390684607F07AFB8DE801
:1007B00007000004000C03D04FF0FF30410800E0B8
:1007C0001046B8F1000F03D00022009215461EE03B
:1007D000751E05D400F098F9303262556D1EF9D5BA
:1007E000B3460122084302D000227F1C04E0207897
:1007F000302801D100227F1E002A099784D01DE0F5
:10080000112D07DA00F080F9303262556D1C50EA84
:100810000102F5D1084302D00098C8B10EE00021D2
:10082000681E05E0235C625C63542254401E491C30
:100830008142F7DBAB46A81B401E0990002004F85C
:100840000B000B98099AC0F80880C0E9002B7AE7E2
:1008500011264FF0000857E72DE9F04F884604466F
:10086000D21D22F0070191B0D1E90001CDE90A01C2
:1008700007F04EFC02460B98C00F01D02D2007E078
:100880002068810701D52B2002E0202101EAC00069
:10089000032A099001D0072A05DB0346414620467A
:1008A00000F078F90BE12078800601D5E06900E0DE
:1008B0000620B8F1650F814606D0B8F1660F18D052
:1008C000B8F1670F70D131E00020B9F1110F00903D
:1008D00001DB112301E009F101030AAA01A90CA817
:1008E000FFF7E2FEDDE90C70002609F10105834601
:1008F00047E001204B4600904FF000470AAA01A9AB
:100900000CA8FFF7D1FEDDE90DB00C995D4600267D
:1009100010B909F101000D18B9EB050003D4C0F1BD
:10092000FF3609F10105A5EB09002BE0B9F1010F34
:1009300001DA4FF001090020B9F1110F009048468B
:1009400001DD112300E003460AAA01A90CA8FFF764
:10095000ABFEDDE90C704D4600268346207800078B
:100960000AD4AB4500DA5D4601A8012D04DD41192A
:1009700011F8011C302907D04F4502DA17F1040F96
:1009800004DA012082460FE06D1EEEE7002F02DC44
:10099000ED1B3E4403E0781CA84200DD7D1CB81B23
:1009A00000F1010A4FF000472078000703D4AA4560
:1009B00001DB4FF0FF3A0021B7F1004F0DF1430882
:1009C0008DF8431024D002202B23002F01DA7F4220
:1009D0002D230A21021EA0F1010000DC5FB197FB6C
:1009E000F1FC97FBF1F201FB1C7C17460CF1300C7B
:1009F00008F801CDEEE7A8F1010003702188090590
:100A000001D5452100E06521A0F1010800F8011C95
:100A100009980FA9A1EB0807FF1D00B1012041199A
:100A200001EBEA70A1693844081A401EA0612078E1
:100A3000C00602D42046AFF30080099828B1D4E95B
:100A400001219047206A401C20622078C00622D5F0
:100A50002046AFF300801EE0002E04DBB34502DD2C
:100A600001A8805D00E03020D4E901219047206A90
:100A7000401C2062761CAAF101005FEA000A0AD13C
:100A800000F03EF8C0680168405CD4E9012190475D
:100A9000206A401C2062281EA5F10105DCDC07E06D
:100AA000D4E9012118F8010B9047206A401C20620C
:100AB000381EA7F10107F3DC2046AFF300800320C6
:100AC00011B041E601694A1C02610878704700B51F
:100AD0008FB0CDE901310021059105497944CDE977
:100AE000031011466846FFF7D5FC0FB000BD0000AB
:100AF000E5FFFFFF0A6802F8010B0A60704700007B
:100B0000004870473800002030B5B0F10A0271F19A
:100B100000034FEA900E4EEA817EB0EB0E0061EBCF
:100B200091014FEA101E4EEA017E10EB0E0041EBE0
:100B300011114FEA102E4EEA016E10EB0E0041EB40
:100B400011214FEA104E4EEA014E10EB0E0041EB20
:100B50001141401841F100014FEAD00040EA4170D4
:100B60004FEAD1014FEA810444EA907410EB80050A
:100B700044EB01046D1944EB0404521BA3414FF0F4
:100B8000000348BF0A3200D530BD401C41F10001CE
:100B900030BD00002DE9F0411F46044603260168E0
:100BA000072A01F4006004DB08B116A505E016A5CC
:100BB00003E008B115A500E015A521F010002060A4
:100BC000A069C01EA0610FB1401EA0612046AFF316
:100BD00000804FB1D4E9012138469047206A401C7B
:100BE0002062C01C206206E0206AFAE7D4E90121F5
:100BF00015F8010B9047761EF8D22046AFF300801F
:100C0000BDE8F0814E414E006E616E00494E4600D7
:100C1000696E66002DE9F047814616468AB0354870
:100C200078440DC88DE80D0032487844801C03AC30
:100C30000DC884E80D0041F69B300844372190FB35
:100C4000F1F290FBF1F5A5F1800501FB12041B3CCC
:100C500002D56442012000E00020DFF898A0804621
:100C60000027FA44AAF1BE0A0EE0E0070AD0324695
:100C7000684607EB470101230AEB810107F011F9F0
:100C80008DE8070064107F1C002CEED1194F7F44C3
:100C9000AE3F19E0E80715D007EB04100DF1180A74
:100CA00090E80E008AE80E00C068F04201D1981961
:100CB00008903246012306A903A807F0F2F803AB17
:100CC00083E807006D10641C002DE3D14FF0010391
:100CD00032466946B8F1000F03A802D007F0CCF8FD
:100CE00001E007F0DEF8C9E90001C9F808200AB000
:100CF000BDE8F087247B0000004870471800002002
:100D00007546FFF7F9FFAE4605006946534620F0E9
:100D10000700854618B020B5FFF7E2FABDE820408D
:100D20004FF000064FF000074FF000084FF0000BA7
:100D3000AC46ACE8C009ACE8C009ACE8C009ACE816
:100D4000C00921F007018D46704710B50446AFF386
:100D500000802046BDE81040FFF7ADBA000000005B
:100D600030B44FF0013C50F8042B51F8043BCCFA5E
:100D700052F4D51A20D1FCB950F8042B51F8043B99
:100D8000CCFA52F4D51A17D1B4B950F8042B51F853
:100D9000043BCCFA52F4D51A0ED16CB950F8042B9E
:100DA00051F8043BCCFA52F4D51A05D1002CDAD014
:100DB00030BC4FF00000704729BAB1FA81F111F050
:100DC0001801D1F120008440F2D1CA40CB4012F08A
:100DD000FF0213F0FF0330BCD01A704701491820FE
:100DE000ABBEFEE7260002007047000070B582B07F
:100DF00004460020019021688A68D20711D14FF67D
:100E0000C076C7F6FF76886806F17F0210420BD0E5
:100E1000E06D40F01000E065206E40F001002066BB
:100E2000012002B070BD00BF8868304040F0010072
:100E3000886040F20830C5F200000068000221D44A
:100E400000F06CFD21680A68D20717D1054602E060
:100E50000868C00712D18868C00704D1886830408C
:100E600040F00100886000F059FD401B2168032814
:100E7000EED30868C007EBD1CAE700BF002002B07C
:100E800070BD00BF40F21000C2F20000006842F6E0
:100E900063518009C0F23E51A0FB0101880900EBBB
:100EA00040000C2101EB8000019001980028C7D080
:100EB00001980138019001980028C1D001980138AB
:100EC000019001980028BBD0019801380190019849
:100ED0000028B5D001980138019001980028E7D189
:100EE000AEE70000FEE7000070470000EFF310805F
:100EF00072B600BFFEE70000F0B581B0002200929C
:100F000090F85820012A03D10221084601B0F0BD13
:100F10000123076880F85830BB685B0734D4D1E9F7
:100F200000351F26C5F3012407EB8404226B05F06E
:100F30001F05AE40C3F38463B243AB401A43226340
:100F4000BA68BB6802F0040203F00803D21840F04C
:100F5000BC800A6807F114030426C2F34064D1F888
:100F600008E006EAD25C53F82440C2F30455072295
:100F7000AA40BEF1004F24EA02040BD143F80C4012
:100F80001A6842F000430DE0C16D41F02001C165D7
:100F9000012178E10EFA05F2224343F80C201A6889
:100FA00022F000437B61D1E90435FC68042B5FD15A
:100FB0003A6E3A6E0B68C2F3846293FAA3F6C3F3F7
:100FC000846C6FF3DF43B6FA86F5002B2C464FF6A0
:100FD000FF7E08BF6446A242C0F2070E0CD13A6EF3
:100FE00022F000423A660A6802EA0E03C2F3846CF9
:100FF00092FAA2F2B2FA82F57A6E7A6E002BC2F3FE
:1010000084622C4608BF6446A2420CD17A6E22F05C
:1010100000427A660A6802EA0E03C2F3846C92FA0E
:10102000A2F2B2FA82F5BA6EBA6E002BC2F38462F3
:101030002C4608BF6446A2420CD1BA6E22F0004290
:10104000BA660A6802EA0E03C2F3846C92FAA2F24C
:10105000B2FA82F5FA6EFA6E002BC2F3846208BF10
:101060006546AA4231D1FA6E22F00042FA662CE0BF
:10107000062202EA940205FA02FC0E6807F16005F6
:1010800055F823404FF20002C0F2FF3206F0F84656
:10109000224046EA0C06324342F0004245F8232043
:1010A0000A698B6955F8226026F08076334345F84B
:1010B00022300A690B7F55F82260012B26F000765A
:1010C00008BF06F1007645F82260BA680D68D207BD
:1010D00050D1CA68D7F8B0602B466FF3DF4326EAD9
:1010E000030C4FF6FF7602F01804C0F20706E64044
:1010F00000242E40C4F27F0446EA0C06A242C7F840
:10110000B06037D193B195FAA5F2B2FA82F201320A
:1011100002F01E03092B02F01F0310D801229A408F
:1011200003EB430342EA035315E000BF012202EB45
:10113000956202F01E030A2B02F01F03EED3012278
:1011400000269A4003EB4303CFF6206606EB0353D9
:101150001A4342F00073C3F3406607EB86068A68C1
:101160007569C3F3045307249C40A5439A402A435E
:1011700072610D680021C8F208010D4200F0828002
:1011800040F2083CC5F2000CDCF800400021CCF233
:1011900021318D4204F0E07E04D01021C9F2C0015B
:1011A0008D4241D1B7F1A04F4FF0000108BF14F4B8
:1011B000000268D1DCF8001042F6635221F0E071C1
:1011C00041EA0E0141F40001CCF8001040F2100198
:1011D000C2F200010968C0F23E528909A1FB021265
:1011E000910901EB41010C2202EB81010091009970
:1011F000002947D00099013900910099002941D078
:101200000099013900910099E1B3009901390091E9
:101210000099B9B3009901390091009900294FF064
:101220000001E7D12FE000BF0021CCF252718D42C6
:1012300010D10021B1EB1E6F0CD1ACF502718F42C1
:1012400020D0DCF8001021F0E07141EA0E0141F0FD
:10125000807115E0ACF502718F424FF0000112D0A1
:101260000022CCF68432954208BF14F480020AD1E1
:10127000DCF8001021F0E07141EA0E0141F4800138
:10128000CCF800100021002280F85820084601B058
:10129000F0BD00000068006C70470000B0B582B07F
:1012A0000446002001904CB1E06D58B12168886877
:1012B000800012D48868C00019D54CE0012002B02B
:1012C000B0BD00BF204600F009F90020206684F878
:1012D0005800216888688000ECD588684FF6C07295
:1012E000C5F6FF72104088608868C00033D44FF69E
:1012F000C0728868C5F6FF7202F18052104000F19A
:101300008050886040F21000C2F20000006842F68F
:1013100063528009C0F23E52A0FB020290090222F1
:1013200002EB400001900198A8B100BF019801387C
:101330000190019878B1019801380190019850B15D
:10134000019801380190019828B101980138019065
:1013500001980028EAD18868C00009D4E06D40F007
:101360001000E065206E40F001002066012000E0E2
:1013700000208A68E36D02F0040203F01003D21823
:10138000E26D71D122F481720232E2658A68D2077D
:101390001AD140F2083C4FF600534FF60062C5F2F6
:1013A000000CCFF6FF73CFF6FF725CF803305CF8E9
:1013B00002201A43D20707D16268DCF8003023F418
:1013C0007C131A43CCF8002094F81DE0E36BD4E9B9
:1013D00002C243EA4E331A4394F8243042EA0C0224
:1013E000012B42EA034207D1D4F828C00023CFF6EC
:1013F000FE7303EB4C431A43E36A33B1D4F830C0B5
:1014000003F4787343EA0C031A43D1F80CC044F296
:101410000703CFF6F07303EA0C031A43CA600A69A4
:10142000636B22F040621A430A618A68120744D44F
:1014300094F83820237F520042EA833CCB6844F280
:10144000020223EA020242EA0C02CA6022690B6924
:1014500082B143F480330B61D1F8C0C043F6FF730F
:101460002CEA03031A430DE042F010010120E1656C
:1014700002B0B0BD23F480320A61D1F8C02043F637
:10148000FF739A43C1F8C02094F840300A69012BD9
:1014900010D140F2FD7322EA030CD4E91132D4E9F1
:1014A00013E543EA0C031A4342EA0E022A4342F0D0
:1014B000010201E022F001020A6162690B6B012A5C
:1014C00023F00F0202D1236A013B1A430A63E16D44
:1014D000012262F30101E16502B0B0BD10B598B020
:1014E00004460020CDE9160002A804304021FFF791
:1014F00058F8206840F20011C5F20001884201D07E
:1015000018B010BD4FF000504FF40044119002A8E5
:10151000029400F053FB002818BFFFF7E7FC41F2EC
:101520004C00C4F20200016841F4005101600168FE
:1015300001F4005101910199016841F0020101603B
:10154000006813A900F00200019001980320149094
:101550000020159040F20040C4F60000139400F003
:1015600001F918B010BD000070B540F20015C5F2C9
:1015700000050446D5F8086200688068400703D477
:1015800094F85800012801D1022070BD012084F890
:1015900058002046FFF72AFC20B1002084F85800AC
:1015A000012070BD2068E16D40F60173994306F09B
:1015B0001F0201F580760146A84208BF4FF0A04106
:1015C0000B1AB3FA83F35B09E66500D11AB9E66D2D
:1015D00026F48016E665E56D0026ED044FF0000563
:1015E00044BF256E25F0060525661C25056084F898
:1015F000586043B9092A19D8012303FA02F240F2CC
:1016000021231A4212D0C168890104D5E16D01225B
:1016100062F30D31E16581684FF6C072C7F6FF7263
:10162000114004318160002070BD00BFE06D40F4C6
:101630008010E065C86880015CBF002070BDE06D6F
:10164000012161F30D30E065002070BD014690F886
:101650002500022828D180B50868D1E910CE8A6C0F
:10166000036823F00E030360136823F48073136090
:10167000026822F0010202600EF01F00012202FA4D
:1016800000F0CCF80400D1E913205060486D30B16F
:10169000026822F480720260D1E9160242600020E2
:1016A000BDE8804003E000BF0420C86301200122A0
:1016B00081F82520002281F82420704790F8251019
:1016C000022931D180B50168D0E910CE826C0B6857
:1016D00023F00E030B600B6823F001030B6011680D
:1016E00021F4807111600EF01F02012101FA02F253
:1016F000CCF80420D0E913325A60426D32B113683D
:1017000023F480731360D0E91623536080F825100A
:10171000826B002180F824100AB190470021BDE8B7
:1017200080400846704700BF0421C16301210022A8
:1017300080F8251080F8242008467047B0B504468C
:1017400000F0ECF8054640F20400C2F200004068E8
:10175000611C18BF044400BF00F0E0F8401BA04229
:10176000FAD3B0BD2DE9F04F82B00D68002D00F026
:10177000C58000F13847860546EA972741F20046C2
:10178000C4F60006062240F2004EB04208BF052211
:10179000C4F2010E052F38BF3A464FF0000C012469
:1017A00000270026009209E00D68013635FA06F29E
:1017B00007F102070CF1040C00F0A08004FA06FB0C
:1017C00015EA0B08F0D0D1F804A003230AF00305B2
:1017D0006A1EBB40012A6FEA03090FD88268CB68F2
:1017E00002EA0902BB401A4382604268CAF300134E
:1017F00022EA0B02B3401A43426003E0032D01D1F9
:1018000003251FE0C2688B6802EA0902BB401A4345
:10181000022DC26016D16FF0030202EA56020244A2
:101820000CF01C050F23D2F820A003FA05FB0B696E
:101830002AEA0B0AAB4043EA0A031362D1F804A078
:101840000AF00305026805FA07F302EA09021A43DF
:101850001AF4403F0260A7D041F26003C4F20203D1
:101860001A684FF6084A42F001021A601A68CFF669
:10187000FF7A02F001020192019A26F003027244FB
:1018800052F80A900CF00C050F23009CAB4029EA9B
:10189000030304FA05F52B4342F80A30DEF808206A
:1018A0004B6842EA080540F20C49DC0258BF22EAC4
:1018B0000805CEF80850C4F20109D9F800209D02AD
:1018C00042EA080458BF22EA0804C9F80040DEF8DA
:1018D00004209D0342EA080458BF22EA0804CEF817
:1018E0000440DEF80020DB0342EA080458BF22EA85
:1018F0000804CEF80040012456E700BF02B0BDE85E
:10190000F08F00000069084018BF012070470000F8
:101910001823002A08BF2823C150704740F28420B2
:10192000C2F200000068704740F2040040F28421D7
:10193000C2F20000C2F2000140680A681044086068
:101940007047000080B5032000F08AF80F2000F0F7
:1019500009F800281CBF012080BD00F029F80020F4
:1019600080BD000070B540F20406C2F20006716846
:10197000E1B1044640F21000C2F200004FF47A7266
:101980000068B2FBF1F1B0FBF1F000F0ABFE0F2C00
:101990004FF0010508D838B94FF0FF30214600223A
:1019A000002500F031F83460284670BD012070BD7C
:1019B00082B041F25800C4F20200816841F0010196
:1019C0008160816801F0010101910199016841F094
:1019D00080510160006800F080500090009802B0D3
:1019E00000F0E2B8002848BF704700F01F01012254
:1019F00002FA01F11C2202EAD0004EF20012CEF2ED
:101A0000000281507047000010B54EF60C5CCEF21B
:101A1000000CDCF80030C3F3022E8EF00704042C17
:101A200028BF0424BEF103034FF0FF3E0EFA04F476
:101A300038BF0023A14399400EFA03F39A431143A0
:101A400000F00F0200F160430901043A03F564431A
:101A50006244002848BF02F10C03197010BD000059
:101A60004EF60C51CEF200010A684FF6FF031A4001
:101A700060F30A2242F0806040F0FD700860704719
:101A8000B0F5007F42D0002840F0808047F214007B
:101A9000C4F2000050F8141CC26E01F4C06122F4BC
:101AA0008072B1F5806FC2662ED150F8141C0122ED
:101AB00062F34A2140F8141C40F21001C2F2000106
:101AC0000968322251434DF68362C4F21B32A1FBF6
:101AD0000212910C0268520511D54A1C0FD00268FF
:101AE00052050CD559B10268520508D5012906D016
:101AF0000268520503D50229A1F10401EAD1006868
:101B0000400544BF032070470020704747F214008F
:101B1000C4F2000050F8141CC26E01F4C06142F41B
:101B20008072B1F5806FC266EED150F8141C0122AC
:101B300062F34A2140F8141C40F21001C2F2000185
:101B40000968322251434DF68362C4F21B32A1FB75
:101B50000212910C0268520511D54A1C0FD002687E
:101B600052050CD559B10268520508D5012906D095
:101B70000268520503D50229A1F10401EAD10068E7
:101B8000400544BF03207047BEE700BF47F2140082
:101B9000C4F2000050F8141C022262F34A2140F8FB
:101BA000141C00207047000047F20800C4F2000037
:101BB000016841F480410160704700002DE9F04167
:101BC00082B00446807841F288060007C4F202061B
:101BD00002D400202FE000BF56F8300C5FEAC008A6
:101BE0000BD456F8300C40F0805046F8300C56F8C4
:101BF000300C00F080500190019847F20007C4F2C9
:101C00000007386840F480703860FFF787FE0546AB
:101C10003868C00500F1D680FFF780FE401B02281F
:101C2000F6D90320B8F1000F05D456F8301C21F086
:101C3000805146F8301C2168CA0713D18A0719D48D
:101C40004A071FD40A0725D48A062BD44A0631D462
:101C50000A0637D4CA053DD48A0543D44A0549D477
:101C600057E000BF3268636822F003021A43326013
:101C70008A07E5D53268A36822F00C021A43326065
:101C80004A07DFD53268E36822F030021A43326037
:101C90000A07D9D53268236922F0C0021A4332609C
:101CA0008A06D3D53268636922F440621A433260EF
:101CB0004A06CDD53268A36922F440521A433260F5
:101CC0000A06C7D53268E36922F440421A433260FB
:101CD000CA05C1D53268236A22F440321A43326001
:101CE0008A05BBD53268636A22F440221A43326007
:101CF0004A050ED53268A36A22F440121A43B3F59E
:101D0000801F326005D156F87C2C42F4801246F8D0
:101D10007C2C0A050ED53268E36A22F440021A438D
:101D2000B3F5800F326005D156F87C2C42F4801256
:101D300046F87C2CCA040ED53268236B22F0407220
:101D40001A43B3F1807F326005D156F87C2C42F4FF
:101D5000801246F87C2C8A040ED53268636B22F020
:101D600040621A43B3F1006F326005D156F87C2C03
:101D700042F4801246F87C2C4A040ED53268A36BDC
:101D800022F040621A43B3F1006F326005D156F879
:101D90007C2C42F4801246F87C2C09040ED5316864
:101DA000E26B21F040511143B2F1805F316005D107
:101DB00056F87C1C41F4803146F87C1C02B0BDE82A
:101DC000F08100BFB06810F4407010D0216C8842E0
:101DD0000BD0B068B16820F4407041F48031B1603C
:101DE000B16821F48031B160B060C0070CD1B06837
:101DF000216C20F440700843B0600020B8F1000F5F
:101E00003FF519AF11E700BFFFF788FD054641F226
:101E1000883700BFB0688007E9D4FFF77FFD401B1B
:101E2000B842F7D9FDE600002DE9F047002865D05B
:101E300042F2000AC4F2020A0446DAF800000D4633
:101E400000F00F0088420CD2DAF8000020F00F00FA
:101E50002843CAF80000DAF8000000F00F00A8429A
:101E60004CD1216841F20808C807C4F2020803D126
:101E7000880740F1D480B9E0606802283AD003288E
:101E800040D158F8082C920138D5D8F80420D8F859
:101E9000043042F20046C3F3031302F00302D8F801
:101EA00004700133C0F2F406032A04BF43F2006653
:101EB000C0F26E16B6FBF3F2D8F80430C7F306276B
:101EC0007A43C3F34163022707EB4303B2FBF3F208
:101ED0004BF20043C0F2C4439A425DD9D8F80020C7
:101EE00012F0F00F4DD0890756D5A168002953D1C3
:101EF00047E000BF58F8081C890307D40120BDE85B
:101F0000F08700BF58F8081C4905F7D5D8F800102D
:101F100001F00C0104293FD0D8F8001001F00C01A9
:101F2000082939D0D8F8001001F00C010C2933D160
:101F3000D8F80410D8F8042042F20047C2F3031284
:101F400001F00301D8F804300132C0F2F40703298C
:101F500004BF43F20067C0F26E17B7FBF2F1D8F886
:101F60000420C3F306235943C2F34162022303EB67
:101F70004202B1FBF2F14BF20042C0F2C442914284
:101F80000AD9D8F80010082262F307114FF00109AE
:101F9000C8F8001002E000BF4FF00009D8F80010A8
:101FA00021F003010843C8F80000FFF7B7FC06461C
:101FB00041F28837D8F80000616800F00C00B0EBFF
:101FC000810F07D0FFF7AAFC801BB842F2D903208B
:101FD000BDE8F0872168880708D4B9F1000F1ED04A
:101FE000D8F8000020F0F00017E000BF480705D542
:101FF000D8F8000040F4E060C8F80000080706D5F3
:10200000D8F80000072262F30D20C8F80000D8F8C5
:102010000000A26820F0F0001043C8F80000DAF8D1
:10202000000000F00F00A8421BD9DAF8000020F0F1
:102030000F002843CAF80000FFF770FC064641F283
:10204000883700BFDAF8000000F00F00A84207D080
:10205000FFF764FC801BB842F4D90320BDE8F08789
:102060002168480707D5D8F80000E26820F4E0604E
:102070001043C8F80000080708D5D8F80000216907
:1020800020F4605040EAC100C8F80000D8F8000011
:1020900042F20041C0F2F40100F00C0004280846AE
:1020A0002DD0D8F8000000F00C00082843F20060A2
:1020B000C0F26E1023D0D8F8002002F00C020C2AD7
:1020C0001CD1D8F80420D8F8043002F00302C3F37E
:1020D0000313D8F804700133032A08BF0146B1FB8B
:1020E000F3F0D8F80410C7F30627C1F341610222C8
:1020F000784302EB4101B0FBF1F000E00020D8F89A
:10210000001048F26072C1F30311C0F60002515C86
:1021100040F2100201F01F0120FA01F140F2040028
:10212000C2F200000068C2F200021160BDE8F04790
:10213000FFF718BC40F2100041F20801C2F20000A3
:10214000C4F202010068096848F27072C1F302210A
:10215000C0F60002515C01F01F01C840704700004A
:1021600040F2100041F20801C2F20000C4F2020184
:102170000068096848F27072C1F3C221C0F600021B
:10218000515C01F01F01C8407047000041F20C0192
:10219000C4F2020151F8040C42F20042C0F2F4020F
:1021A00000F00C000428104608BF704751F8040CDA
:1021B00000F00C00082843F20060C0F26E1025D039
:1021C00051F8043C03F00C030C2B1CBF002070479B
:1021D00080B5D1F800C00B680CF0030CC3F3031EEC
:1021E0000B680EF1010EBCF1030F08BF024609682F
:1021F000B2FBFEF0C3F30623C1F341610222584350
:1022000002EB4101B0FBF1F0BDE8804070470000F7
:10221000002804BF012070472DE9F04182B0044638
:10222000007841F20006C007C4F202061ED12078F1
:1022300080073DD42078000764D42078400700F15F
:1022400087802078800600F1D980E569002D00F0B4
:102250004482B06800F00C000C2840F03181012D60
:1022600040F09081012002B0BDE8F081B06800F03C
:102270000C01F068082961D0032281F00C0122EAE8
:1022800000000844B0FA80F0400957D16068B0F50A
:10229000803F07D0B0F5A02F40F0E480306840F4D4
:1022A00080203060306840F480303060E5E000BF6E
:1022B000B068F16800F00C00042871D001F003014F
:1022C00080F00C0081F002010844B0FA80F040096F
:1022D00066D1E1683068002900F0E08040F4807049
:1022E0003060FFF71BFB05463068400500F10A81AE
:1022F000FFF714FB401B0228F6D9032002B0BDE80B
:10230000F08100BF6169D6F89400002900F0948044
:1023100040F00100C6F89400FFF700FB054600BF3F
:10232000D6F8940080073FF588AFFFF7F7FA401B17
:102330000228F5D9032002B0BDE8F081306880039F
:102340007FF575AF606800287FF471AF3EE000BF95
:10235000B06D5FEAC00808D4B06D40F08050B06541
:10236000B06D00F080500190019847F20007C4F270
:1023700000073868C0052DD4386840F48070386094
:10238000FFF7CCFA054600BF3868C00522D4FFF736
:10239000C5FA401B0228F7D9032002B0BDE8F0813E
:1023A0003068400501D5E06880B17068216920F08F
:1023B000FE4040EA0160706040F20400C2F200009A
:1023C0000068FFF7CFFA00283FF434AF012002B0D5
:1023D000BDE8F081A068012808D0052840F0B08051
:1023E000D6F8900040F00400C6F89000D6F89000AF
:1023F00040F00100C6F89000B0E000BFA169D6F837
:102400009800002900F0868040F00100C6F898008E
:10241000FFF784FA054600BFD6F8980080073FF51D
:1024200014AFFFF77BFA401B02284FF00300F3D9EB
:1024300002B0BDE8F08100BF20F00100C6F89400B2
:10244000FFF76CFA054600BFD6F8940080077FF5C9
:10245000F4AEFFF763FA401B0228F5D9032002B05F
:10246000BDE8F0813168002821F4803131603168A5
:1024700021F48021316000F0BF80FFF74FFA05465C
:10248000306880033FF5D3AEFFF748FA401B64285D
:10249000F6D9032002B0BDE8F08100BF20F48070BF
:1024A0003060FFF73BFA0546306840057FF5C2AE65
:1024B000FFF734FA401B02284FF00300F4D9B7E7C6
:1024C000306820F080703060FFF728FA022D054652
:1024D0000CD100BF3068800140F1BA80FFF71EFACE
:1024E000401B02284FF00300F4D9A1E730688001B7
:1024F00040F1EC80FFF712FA401B02284FF0030076
:10250000F4D995E77068216920F0FE4040EA016047
:1025100070608FE620F00100C6F89800FFF7FEF922
:10252000054600BFD6F8980080077FF58EAEFFF70E
:10253000F5F9401B02284FF00300F3D978E700BFFC
:10254000D6F89010002821F00101C6F89010D6F8B6
:10255000901021F00401C6F890105DD0FFF7DEF96D
:10256000054641F2883700BFD6F89000800765D451
:10257000FFF7D4F9401BB842F6D9032002B0BDE8FA
:10258000F08100BFF068216A00F003028A427FF404
:102590001DAF626A6FF00F0300F0F00103EB02124F
:1025A00091427FF413AFA16A00F4FE42B2EB012F17
:1025B0007FF40CAFE16A00F07842B2EBC16F7FF4B8
:1025C00005AF226B0023CFF6E07303EA025200F45A
:1025D000C001A2F5001291427FF4F8AE616B4FF09A
:1025E0007E4202EA016100F0C06001F17E41884252
:1025F0007FF4ECAE71E000BFFFF790F9054600BF35
:10260000306880037FF513AEFFF788F9401B64281C
:102610004FF00300F4D90BE7FFF780F9054641F2CC
:10262000883700BFD6F89000800707D5FFF776F906
:10263000401BB8424FF00300F4D9F9E6B8F1000F9F
:102640003FF5FFADB06D20F08050B065F9E500BFFB
:10265000F06848F20C01C0F29F1104F1200700EA73
:10266000010C8ECF6FF00F00D4E90C5400EB021078
:102670000022CFF6E07241EA0C0102EA055208435B
:10268000A2F500124FF07E4540EA032005EA0465FA
:10269000104305F17E4540EAC7602843F06030688A
:1026A00040F080703060F06840F08070F060FFF7BC
:1026B00035F90446306880010FD4FFF72FF9001B6D
:1026C00002284FF00300F5D9B2E600BFF0684FF6DC
:1026D000FC71CFF6EE610840F060002002B0BDE86A
:1026E000F0810000411E0020B0EB116F1CBF0120E3
:1026F00070474EF21002CEF2000251604EF62351A6
:10270000CEF20001F0230B7007219060116070473A
:1027100070470000704700007047000090F83C20B0
:10272000012A04BF02207047B0B5D1E90232D1E9D5
:1027300000CE22F47C5223F4705343EA020448F2A0
:10274000FF73CEF6F0730EEA0302224303F5006432
:1027500004EA0C0442EA040C0C6903F5C05222405E
:102760004C6942EA0C02224303F5605422400C6B90
:1027700003F5F04323401A438B6940F2000CCC6907
:10278000CEF6FF7C0CEA03431443D0F800C043F2BA
:102790000042C4F20102944543EA040305D042F624
:1027A0000042C4F20102944516D14FF6FF72CDF6F5
:1027B0000F421A40D1E9083ED1E90A410025CDF681
:1027C000F04505EA0454224323F008531A432EF03F
:1027D00000531A4342EA01030021CCF8443080F848
:1027E0003C10BDE8B040084670470000704700004C
:1027F000704700007047000090F83C20012A4FF01D
:1028000002024AD070B580F83D20026843F2004CC5
:1028100054689368C4F2010C42F6004E6245C4F25B
:10282000010E01D0724503D14D6824F470042C438D
:102830004FF68F75CFF6FF550E682C4042F6FF35E8
:10284000C4F201053443AA4254600FDCB2F1804F58
:1028500016D040F20046C4F20006B24210D040F654
:102860000006C4F20006B2420AD00EE0724507D05C
:1028700044F20006C4F20106B24201D0624504D11E
:10288000896823F08003194391600121002280F8B8
:102890003D1080F83C20BDE87040104670470000B5
:1028A00070470000002804BF0120704710B504469F
:1028B00090F83D0028B9002084F83C00204600F044
:1028C00023F8022084F83D002068211D04F074F9EB
:1028D000012084F8480084F83E0084F83F0084F822
:1028E000400084F8410084F8420084F8430084F8F2
:1028F000440084F8450084F8460084F8470084F8D2
:102900003D00002010BD000080B584B0006844F692
:102910000001C4F20101884226D044F20041C4F211
:102920000101884230D040F20041C4F200018842E7
:1029300027D141F26000C4F2020050F8081C0022C6
:1029400041F0020140F8081C50F8080C002100F08A
:102950000200039003981D20FFF756F81D2004B0D5
:10296000BDE88040FFF73EB841F26000C4F20200CB
:10297000016841F480210160006800F4802001902A
:10298000019804B080BD00BF41F26000C4F20200B3
:10299000016841F400310160006800F400300290E9
:1029A000029804B080BD000090F83D1001291DD1AF
:1029B000022180F83D10016842F6FF32C868C4F277
:1029C0000102914240F00100C86011DCB1F1804F7A
:1029D00020D040F20040C4F2000081421AD040F6FC
:1029E0000000C4F20000814214D020E001207047B2
:1029F00042F60040C4F2010081420BD044F20000D4
:102A0000C4F20100814205D043F20040C4F201004B
:102A100081420CD188680722C0F201020240062AD6
:102A20004FF00000E3D0B2F5803F08BF7047086860
:102A300040F00100086000207047000090F83C2042
:102A4000012A4FF0020200F0AC8080B580F83D20F2
:102A5000D0F800C08822DCF80830CFF6CE721A40D9
:102A6000CCF808200B686F2B10DD1F22C0F210027B
:102A7000934237DCB3F5005F46DA702B00F09480A8
:102A8000B3F5805F00F08480D8E000BF2F2B35DDE8
:102A90004F2B3FDC302B6FD0402B40F0CF80D1F854
:102AA00004E0C968DCF82030DCF8202022F00102C4
:102AB000CCF82020DCF8182022F0F00242EA0111C4
:102AC00023F00A0242EA0E02CCF81810CCF82020BB
:102AD000DCF808104FF68872CFF6CF7211404731FC
:102AE00054E000BF3F21C0F210018B423ADC2021AC
:102AF000C0F210018B423FD0302139E0E3B3102BFC
:102B00003AD0202B38D099E062D0B3F1101F33D0E7
:102B100094E000BF502B6FD0602B40F08F80D1F835
:102B200004E0C968DCF82030DCF8202022F0100234
:102B3000CCF82020DCF8182022F4704242EA01315F
:102B400023F0A00242EA0E12CCF81810CCF8202094
:102B5000DCF808104FF68872CFF6CF72114067315B
:102B600014E000BF4021C0F210018B4204D070215C
:102B7000C0F210018B4261D1DCF808104FF6887268
:102B8000CFF6CF721140194341F00701CCF808107D
:102B90000022012180F83D10002180F83C10BDE8A2
:102BA00080401046704700BFD1E901E3C968DCF8F6
:102BB000082043EA0E0322F47F4243EA0121114335
:102BC000CCF80810DCF8081041F07701DEE700BF10
:102BD000D1E901E3C968DCF8082043EA0E0322F4D6
:102BE0007F4243EA01211143CCF80810DCF80810B9
:102BF00041F48041CAE700BFD1F804E0C968DCF8BD
:102C00002030DCF8202022F00102CCF82020DCF873
:102C1000182022F0F00242EA011123F00A0242EAEF
:102C20000E02CCF81810CCF82020DCF808104FF673
:102C30008872CFF6CF7211405731A7E70122A8E77B
:102C400070470000F0B581B004460068C5680669A9
:102C5000B10717D515F0020114D06FF00201016120
:102C6000012121778069800704D02046FFF7E8FF23
:102C700006E000BF204600F0CBF8204600F0ECFA5A
:102C800000202077700719D515F0040016D02068B1
:102C90006FF00401016102212177806910F4407F07
:102CA00004D02046FFF7CCFF06E000BF204600F02E
:102CB000AFF8204600F0D0FA00202077300717D573
:102CC00015F0080014D020686FF00801016104219C
:102CD0002177C069800703D02046FFF7B1FF05E0E8
:102CE000204600F095F8204600F0B6FA0020207744
:102CF000F00619D515F0100016D020686FF01001FD
:102D0000016108212177C06910F4407F04D020467A
:102D1000FFF796FF06E000BF204600F079F8204656
:102D200000F09AFA00202077F00718BF15F0010094
:102D300006D020686FF001010161204600F056FBCB
:102D400016F4025F05F0800718BF002F02D1F005CE
:102D500009D410E020686FF4025101612046FFF7AA
:102D6000D9FCF00507D537B120686FF48071016197
:102D70002046FFF7CDFC700609D515F0400006D0BF
:102D800020686FF040010161204600F00BFCB006A6
:102D900009D515F0200006D020686FF020010161F0
:102DA0002046FFF7B9FCF00209D515F4801006D0D3
:102DB00020686FF4801101612046FFF719FDB00211
:102DC00009D515F4001006D020686FF400110161D8
:102DD0002046FFF70BFD700209D515F4800006D0E0
:102DE00020686FF4800101612046FFF703FD300287
:102DF0000CD515F4000009D021686FF400022046BC
:102E00000A6101B0BDE8F040FFF74ABD01B0F0BD76
:102E10007047000090F83C30012B04BF022070473F
:102E20004FEAB202052A00F293812DE9F041DFE872
:102E300012F007005500A900FD005101950100BFE7
:102E400003681D6A1A6AA3F1804622F001021A6221
:102E50001A46A6F596369F05D3F804C052F818EF27
:102E600047EA96268F68D1F8008025F00205072EE4
:102E700045EA07050AD80127B74017F0E50F1FBF3D
:102E8000CF6825F00C0527F004073D43072E0CD82A
:102E9000012707FA06F616F0E50F1FBFD1E905670F
:102EA0002CF44074264346EA070C4FF68C74CFF698
:102EB000FE740EEA040747EA0807C3F804C09F61DE
:102EC0004F6809695F631D629F6947F008079F614A
:102ED0009F6927F004079F617EE100BF036843F20A
:102EE00000461D6A1A6AC4F2010622F010021A6234
:102EF0001A46D3F804C052F8188FB3428E68D1F83E
:102F000000E025F0200545EA061505D042F600460A
:102F1000C4F20106B34207D1CE686FF0400725F036
:102F2000C00507EA06163543A3F18046A6F5963696
:102F30009F0547EA9626072E0CD8012707FA06F6C2
:102F400016F0E50F1FBFD1E905672CF44064374345
:102F500044EA870C48F6FF44CFF6FF6404EA08040D
:102F600044EA0E27C3F804C09F614F6809699F6354
:102F70001D629F6947F400679F619F6927F480671E
:102F80009F6128E1036843F200461D6A1A6AC4F291
:102F9000010622F480721A621A46D3F804C052F86D
:102FA0001C8FB3428E68D1F800E025F4007545EA25
:102FB000062505D042F60046C4F20106B34207D109
:102FC000CE6840F2FF47360225F44065BE433543E4
:102FD000A3F18046A6F596369F0547EA9626072E6A
:102FE0000CD8012707FA06F616F0E50F1FBFD1E946
:102FF00005672CF44054374344EA071C4FF68C74A1
:10300000CFF6FE7404EA080444EA0E07C3F804C0CD
:10301000DF614F680969DF631D62DF6947F00807F8
:10302000DF61DF6927F00407DF61D5E0036843F261
:1030300000461D6A1A6AC4F2010622F480521A621E
:103040001A46D3F804C052F81C8FB3428E68D1F8E8
:1030500000E025F4005545EA063505D042F6004665
:10306000C4F20106B34207D1CE6844F6FF773603B7
:1030700025F44045BE433543A3F18046A6F5963678
:103080009F0547EA9626072E0CD8012707FA06F671
:1030900016F0E50F1FBFD1E905672CF44044374314
:1030A00044EA871C48F6FF44CFF6FF6404EA0804AC
:1030B00044EA0E27C3F804C0DF614F6809691F6442
:1030C0001D62DF6947F40067DF61DF6927F480670D
:1030D000DF6180E00368D3F820C01A6AA3F180475B
:1030E00022F480321A621A46A7F596379C055D686D
:1030F00052F8508FD1F800E08E6844EA9727072FE6
:1031000009D80124BC4014F0E50F1EBF4C6925F41A
:10311000803545EA04252CF4003747EA06474FF688
:103120008C76CFF6FE76033606EA080646EA0E06E9
:103130005D601E654E6809699E641F621F6D47F0E1
:1031400008071F651F6D27F004071F6544E000BFD7
:103150000121002280F83C20084670470368D3F81C
:1031600020C01A6AA3F1804722F480121A621A461C
:10317000A7F596379C055D6852F8508FD1F800E0AE
:103180008E6844EA9727072F09D80124BC4014F021
:10319000E50F1EBF4C6925F4802545EA84252CF4F3
:1031A000001747EA065748F6FF46CFF6FF6606F5D2
:1031B000407606EA080646EA0E265D601E654E6801
:1031C0000969DE641F621F6D47F400671F651F6D8C
:1031D00027F480671F6509021368194311600021F5
:1031E000BDE8F041002280F83C200846704700000E
:1031F000002804BF0120704710B5044690F83D0038
:1032000028B9002084F83C00204600F023F8022072
:1032100084F83D002068211D03F0CEFC012084F8D5
:10322000480084F83E0084F83F0084F8400084F8A9
:10323000410084F8420084F8430084F8440084F894
:10324000450084F8460084F8470084F83D000020DB
:1032500010BD0000704700007047000071B10A1FE8
:103260008B0743EA9202032A12D8DFE802F0031523
:10327000191D00BF00F13F0318E000BF90F83E2089
:10328000012A1CBF01207047022280F83E202CE05A
:1032900000F143030AE000BF00F1400306E000BF75
:1032A00000F1410302E000BF00F142031B78012B53
:1032B0001CBF01207047032A08D8DFE802F0030B87
:1032C0000F1300BF022280F83F200EE0022280F898
:1032D00043200AE0022280F8402006E0022280F823
:1032E000412002E0022280F84220026801F01F0122
:1032F0004FF0010C136A0CFA01F18B431362136A4D
:1033000090050B43A2F18041A1F5963140EA91214D
:103310000629136244D80CFA01F010F0650F3FD073
:10332000506C42F6FF31C4F2010140F400408A4281
:1033300050640FDCB2F1804F1ED040F20040C4F266
:103340000000824218D040F60000C4F20000824221
:1033500012D01EE042F60040C4F2010082420BD0BF
:1033600044F20000C4F20100824205D043F2004062
:10337000C4F2010082420CD190680721C0F2010121
:10338000014006294FF0000008D0B1F5803F08BF8A
:103390007047106840F0010010600020704700BFC7
:1033A00042F6FF30C4F201008242C3DD43F6FF70F3
:1033B000C4F20100824207DC42F60040C4F2010080
:1033C0008242D3D1D8E700BF44F20000C4F201002A
:1033D0008242D1D044F60000C4F20100824202BF12
:1033E000506C40F400405064D3E70000B0B540F2A8
:1033F0000044C4F60004006804F17841884201D01A
:10340000B0BD00BF20460121FEF77CFA40F26425E2
:10341000002818BF0120C2F2000568702046022172
:10342000FEF770FA002818BF0120687220460421B8
:10343000FEF768FA002818BF012068744FF090402A
:103440000121FEF75FFA29780028024618BF012201
:1034500002296A760AD0012914D0C9B96978B9B9A4
:10346000012129700021696012E000BF69780029FC
:103470006ED06968002250292A709CBF0121A97072
:1034800006E000BF6978002914BF002102212970DD
:10349000297A79B1012915D0022919D1697A00292F
:1034A00060D0E968002250292A729CBF0121A972CC
:1034B0000EE000BF697A59B9012129720021E96043
:1034C00006E000BF697A00290CBF022100212972A1
:1034D000297C79B1012915D0022919D1697C0029EB
:1034E0004AD06969002250292A749CBF0121A9741D
:1034F0000EE000BF697C59B901212974002169617E
:1035000006E000BF697C00290CBF0221002129745C
:10351000297E79B1012915D002297FF471AFA8B3B2
:10352000E8690021502829763FF66AAF0120A87685
:10353000B0BD00BF002818BFB0BD01202876002014
:10354000E861B0BD002814BF002002202876B0BD7D
:1035500069680131512969609AD3002129700121DC
:10356000E97095E7E96801315129E960B0D300219C
:1035700029720121E972ABE7696901315129696159
:10358000C6D3002129740121E974C1E7E86901303B
:103590005128E861FFF434AF002028760120E87656
:1035A000B0BD00007047000090F88410012904BFEE
:1035B000022070472421C0F888100268116813683F
:1035C00023F00103136021F00053002141661360D2
:1035D0002022C0F8882080F8841008467047000038
:1035E000704700007047000090F88420012A04BF53
:1035F00002207047B0B52422C0F888200268D0F8B5
:1036000064E0D2F800C01368BEF1000F23F001039C
:103610001360936823F0606341EA0301916019D05D
:103620009368916849F6701E490FC0F6000E49F67E
:1036300078151EF80140C0F60005695CC3F34263CB
:10364000E400B4FBF1F11EF80340EB5CE500B5FBD0
:10365000F3F301E001210123A0F86A102021A0F872
:103660006830C2F800C0C0F88810002180F88410CB
:10367000BDE8B0400846704790F88420012A04BF96
:1036800002207047B0B52422C0F888200268D0F824
:1036900064E0D2F800C01368BEF1000F23F001030C
:1036A0001360936823F0604341EA0301916019D0ED
:1036B0009368916849F6701E490FC0F6000E49F6EE
:1036C00078151EF80140C0F60005695CC3F342633B
:1036D000E400B4FBF1F11EF80340EB5CE500B5FB40
:1036E000F3F301E001210123A0F86A102021A0F8E2
:1036F0006830C2F800C0C0F88810002180F884103B
:10370000BDE8B040084670477047000070470000B1
:103710007047000070B5016840F62F03CA6904467F
:1037200008688E681340202B0CD100F0200306F0AF
:1037300080555B1917D0616F69B32046BDE87040B2
:10374000084700BF40F60F031A420CD00123C1F214
:10375000000306EA030C40F22013C0F200430340CA
:1037600013EB0C0328D1E36ED50615D5012B13D12D
:1037700010F0100310D0102008628868400627D48B
:10378000B4F85C00B4F85E10B4F85E20002A18BFEC
:10379000884240F03F8270BDD30240F1D58016F4DC
:1037A000800300F0D1804FF4801220460A62BDE809
:1037B0007040FFF7ABBF00BFD30718BF10F4807392
:1037C00040F00C81930706F0010E00F113811CE11B
:1037D000D4F88000006841688AB2002ADBD0B4F8CF
:1037E0005C309A42D7D2A4F85E100068800600F1DF
:1037F0009E80206850E8000F216820F4807041E826
:103800000002DAB1206850E8000F216820F48070CF
:1038100041E8000292B1206850E8000F216820F4CE
:10382000807041E800024AB1206850E8000F21682A
:1038300020F4807041E80002002ADAD1206850E8C4
:10384000020F216820F0010041E80202BAB32068AB
:1038500050E8020F216820F0010041E8020272B333
:10386000206850E8020F216820F0010041E80202C0
:103870002AB3206850E8020F216820F0010041E8D7
:103880000202002ADAD11AE0206850E8020F21680B
:1038900020F0400041E80202DAB1206850E8020F4F
:1038A000216820F0400041E8020292B1206850E80F
:1038B000020F216820F0400041E802024AB120686E
:1038C00050E8020F216820F0400041E80202002A7F
:1038D000DAD12020C4F88C000020E066206850E88F
:1038E000000F216820F0100041E80002DAB12068E2
:1038F00050E8000F216820F0100041E8000292B16A
:10390000206850E8000F216820F0100041E8000214
:103910004AB1206850E8000F216820F0100041E80B
:103920000002002ADAD1D4F88000FDF78FFE0220D1
:103930002067B4F85C00B4F85E10401A81B22046EB
:10394000BDE87040FFF74CBE110606D500F08001BF
:1039500006F40003C91840F0DF81510632D510F09B
:1039600040012FD0206850E8000F216820F040006F
:1039700041E80002DAB1206850E8000F216820F029
:10398000400041E8000292B1206850E8000F216831
:1039900020F0400041E800024AB1206850E8000FE2
:1039A000216820F0400041E80002002ADAD12020FE
:1039B0000021C4F888002046A167BDE8704000F0EF
:1039C00041BA00BF110240F1B38110F0804100F014
:1039D000AF812046BDE87040FFF796BE01230B6221
:1039E000D4F8903043F00103C4F89030930706F008
:1039F000010E0AD5BEF1000F07D002230B62D4F8E6
:103A0000903043F00403C4F8903053070AD5BEF158
:103A1000000F07D004230B62D4F8903043F0020368
:103A2000C4F8903013070CD500F0200353EA0C03C0
:103A300007D008230B62D4F8903043F00803C4F891
:103A4000903013050BD510F0806308D04FF400635D
:103A50000B62D4F8903043F02003C4F89030D4F8CF
:103A60009030002B3FF497AE92060AD500F020006C
:103A700006F08052801804D0626F12B12046904741
:103A80002168D4F89000896800F0280001F0400116
:103A9000401807D12046FFF73BFE0020C4F89000F5
:103AA00070BD00BF206850E8000F216820F49070BE
:103AB00041E80002DAB1206850E8000F216820F4E4
:103AC000907041E8000292B1206850E8000F216830
:103AD00020F4907041E800024AB1206850E8000FDD
:103AE000216820F4907041E80002002ADAD14FF6F4
:103AF000FE70CEF6FF7000BF216851E8021F2268F9
:103B0000014042E80213C3B1216851E8021F226854
:103B1000014042E8021383B1216851E8021F226884
:103B2000014042E8021343B1216851E8021F2268B4
:103B3000014042E80213002BDED1E06E012824D1BF
:103B4000206850E8000F216820F0100041E80002D2
:103B5000DAB1206850E8000F216820F0100041E839
:103B6000000292B1206850E8000F216820F0100098
:103B700041E800024AB1206850E8000F216820F0B7
:103B8000100041E80002002ADAD12020C4F88C009D
:103B90000020E066216860678868400640F1C280C6
:103BA000206850E8020F216820F0400041E802023E
:103BB000DAB1206850E8020F216820F0400041E8A7
:103BC000020292B1206850E8020F216820F0400004
:103BD00041E802024AB1206850E8020F216820F053
:103BE000400041E80202002ADAD1D4F8800000281F
:103BF00000F0988046F63971C0F600018163FDF748
:103C00005DFD00283FF4C7ADD4F88000816BBDE8AE
:103C100070400847401A00BF216851E8001F226821
:103C200021F4907142E80013DBB1216851E8001FD4
:103C3000226821F4907142E8001393B1216851E8A1
:103C4000001F226821F4907142E800134BB12168F3
:103C500051E8001F226821F4907142E80013002B04
:103C6000DAD14FF6FE71CEF6FF7100BF226852E83E
:103C7000022F23680A4043E80226C6B1226852E8B0
:103C8000022F23680A4043E8022686B1226852E8E0
:103C9000022F23680A4043E8022646B1226852E810
:103CA000022F23680A4043E80226002EDED120219D
:103CB000C4F88C100021E166616700BF216851E8FB
:103CC000001F226821F0100142E80013DBB12168D7
:103CD00051E8001F226821F0100142E8001393B15F
:103CE000216851E8001F226821F0100142E800130A
:103CF0004BB1216851E8001F226821F0100142E811
:103D00000013002BDAD1022281B220462267BDE8DF
:103D10007040FFF765BC00BFA16F00297FF40DADB7
:103D200039E500BF2046BDE87040FFF7F1BC00BF99
:103D3000D1017FF530ADB0F1FF3FC8BF70BD204667
:103D4000BDE87040FFF74EBC10B5D0B10446D0F8C6
:103D5000880028B9002084F88400204600F026F866
:103D60002420C4F888002068A16A026822F00102B9
:103D7000026011B1204602F0B1FF204603F0E4F8E2
:103D800010B1012010BD00BF2168486820F49040A8
:103D90004860886820F02A008860086840F00102C6
:103DA00020460A60BDE8104003F00EB810B596B08A
:103DB0000446684608303C21FCF7F3FB206843F6D4
:103DC0000001C4F20101884202D016B010BD00BF4C
:103DD00001200090002468460194FDF7EFFE0028C2
:103DE00018BFFDF783F841F24C00C4F202004169AC
:103DF00041F480414161416901F48041119111997F
:103E0000016841F001010160006811A900F00100A2
:103E1000119011984FF4C06011900220CDE9120466
:103E2000072015904FF090401494FDF79BFC25203F
:103E300000210022FDF7E8FD2520FDF7D3FD16B097
:103E400010BD000070470000FEE7000040F218417E
:103E5000C4F600010A6942F400720A610A6942F478
:103E600080720A610A6842F020020A602022C1F8CA
:103E7000FC230A6942F020020A6100BF00BF00BFB4
:103E80000A6842F020020A600A6842F480720A60FE
:103E90000022C1F8FC230B6943F020030B6100BF33
:103EA00000BF00BF0B6843F020030B600B6843F4B6
:103EB00080730B600B6943F400730B610B6943F46F
:103EC00080730B610B6843F020030B602123C1F862
:103ED000FC330B6943F020030B6100BF00BF00BF40
:103EE0000B6843F020030B600B6843F480730B6096
:103EF000C1F8FC230A6942F020020A6100BF00BF3A
:103F000000BF0A6842F020020A600A6842F4807228
:103F10000A600A6942F400720A610A6942F4807216
:103F20000A610A6842F020020A602222C1F8FC23DA
:103F30000A6942F020020A6100BF00BF00BF0A68A0
:103F400042F020020A600A6842F480720A6000BFF0
:103F500000BF00BF0A6842F400720A604FF4963254
:103F60000B69053A43F400730B610B6843F48073EB
:103F70000B600B6843F020030B60C1F8FC030B6976
:103F800043F020030B6100BF00BF00BF0B6843F08C
:103F900020030B600B6843F480730B6000BF00BF0D
:103FA00000BF0B6843F400730B600B6943F40073AC
:103FB0000B610B6843F480730B600B6843F02003C4
:103FC0000B60C1F8FC030B6943F020030B6100BFD9
:103FD00000BF00BF0B6843F020030B600B6843F485
:103FE00080730B6000BF00BF00BF0B6843F4007319
:103FF0000B600B6943F400730B610B6843F480732F
:104000000B600B6843F020030B60C1F8FC030B69E5
:1040100043F020030B6100BF00BF00BF0B6843F0FB
:1040200020030B600B6843F480730B6000BF00BF7C
:1040300000BF0B6843F400730B600B6943F400731B
:104040000B610B6843F480730B600B6843F0200333
:104050000B60C1F8FC030B6943F020030B6100BF48
:1040600000BF00BF0B6843F020030B600B6843F4F4
:1040700080730B6000BF00BF00BF0B6843F4007388
:104080000B600B6943F400730B610B6843F480739E
:104090000B600B6843F020030B60C1F8FC030B6955
:1040A00043F020030B6100BF00BF00BF0B6843F06B
:1040B00020030B600B6843F480730B6000BF00BFEC
:1040C00000BF0B6843F400730B607FF449AF704787
:1040D0000A78002A08BF70472DE9F04148F2787845
:1040E00004464D1C002740F23F16C0F6000800BFF2
:1040F000A2F12000C1B2490051FA80F008EB001291
:10410000B1B2204600F00AF8EA5D22B1103E132F4A
:1041100007F10107ECD3BDE8F04170472DE9F04706
:1041200040F21843C4F600031F694FF0200C47F417
:1041300000771F611F694FF0210E47F480771F61E0
:104140001F6840F20C0947F020071F60C3F8FCC34A
:104150001F6940F27C0A47F020071F6100BF00BFC3
:1041600000BF1F684FF0220847F020071F601F683C
:10417000C2F2000947F480771F60C3F8FC031F698F
:10418000C2F2000A47F020071F6100BF00BF00BF56
:104190001F6847F020071F601F6847F480771F6083
:1041A0001F6947F400771F611F6947F480771F611B
:1041B0001F6847F020071F60C3F8FCE31C6944F048
:1041C00020041C6100BF00BF00BF1C6844F0200435
:1041D0001C601C6844F480741C60C3F8FC131C69E8
:1041E00044F020041C6100BF00BF00BF1C6844F005
:1041F00020041C601C6844F480741C60002400BF10
:104200001D6945F400751D611D6945F480751D61CA
:104210001D6845F020051D60C3F8FC831D6945F04D
:1042200020051D6100BF00BF00BF1D6845F02005CF
:104230001D601D6845F480751D6000BF00BF00BF94
:104240001D6845F400751D60002500BF32F814603C
:10425000EE40F607564608BF4E4636881F6947F4BB
:1042600000771F611F6847F480771F601F6847F061
:1042700020071F60C3F8FC631E696F1C46F0200610
:104280001E6100BF00BF00BF1E6846F020061E6012
:104290001E6846F480761E6000BF00BF00BF1E6827
:1042A00046F400761E6032F81460FE40F60756466B
:1042B00008BF4E4636881F6947F400771F611F68A4
:1042C00047F480771F601F6847F020071F60C3F81E
:1042D000FC631E69AF1C46F020061E6100BF00BFD4
:1042E00000BF1E6846F020061E601E6846F48076F9
:1042F0001E6000BF00BF00BF1E6846F400761E604F
:1043000032F81460FE40F607564608BF4E4636881F
:104310001F6947F400771F611F6847F480771F60AB
:104320001F6847F020071F60C3F8FC631E69EF1C7D
:1043300046F020061E6100BF00BF00BF1E680435A6
:1043400046F020061E601E6846F480761E6000BFA0
:1043500000BF00BF1E6846F400761E6032F814608D
:10436000FE40F607564608BF4E4636881F69102D98
:1043700047F400771F611F6847F480771F601F684C
:1043800047F020071F60C3F8FC631E6946F0200653
:104390001E6100BF00BF00BF1E6846F020061E6001
:1043A0001E6846F480761E6000BF00BF00BF1E6816
:1043B00046F400761E607FF449AF1D69013045F474
:1043C00000751D611D69013445F480751D611D680E
:1043D000182C45F020051D60C3F8FCC31D6945F08D
:1043E00020051D6100BF00BF00BF1D6845F020050E
:1043F0001D601D6845F480751D60C5B2C3F8FC538F
:104400001D6945F020051D6100BF00BF00BF1D688C
:1044100045F020051D601D6845F480751D601D690F
:1044200045F400751D611D6945F480751D611D68A9
:1044300045F020051D60C3F8FCE31D6945F020052B
:104440001D6100BF00BF00BF1D6845F020051D6055
:104450001D6845F480751D60C3F8FC131D6945F0A7
:1044600020051D6100BF00BF00BF1D6845F020058D
:104470001D601D6845F480751D6008BFBDE8F087AC
:10448000BEE600002DE9F04F8BB0002641F24C0053
:104490000596C4F20200016840F2184541F004019B
:1044A00001600168C4F6000501F004010691069957
:1044B000016801AC41F001010160016840F6140996
:1044C00001F00101069106990168C4F6000941F066
:1044D000020101600068214600F002000690069883
:1044E0004FF44870019001200290A5F118000127B7
:1044F000CDE90366FDF736F94FF48070CDE9010789
:104500004FF090402146CDE90366FDF72BF94FF6B9
:10451000FF7005F57A7406904FF0030806A920464F
:104520000A964FF6FF7B0797CDE90868FDF71AF961
:104530004FF6004ACFF6FF7A55F80A0006A940F474
:10454000807045F80A0028684FF6FF7740F408703D
:104550002860286940F400702861286940F4807060
:104560002861286840F020002860C9F800602869A8
:1045700040F02000286100BF00BF00BF286840F065
:1045800020002860286840F48070286020460A9641
:10459000CDF818B0CDF82480CDE90766FDF7E2F834
:1045A0004FF6104BCFF6FF7B55F80B0007A940F4F0
:1045B000807045F80B0000BF00BF00BFD5F8F8932E
:1045C00055F80A0040F4807045F80A00012081E89F
:1045D000410106A920460A960697FDF7C3F8286808
:1045E00048F2302140F40070286040F27E00C2F2B0
:1045F0000000A0F800900088884203D100F0C4FABF
:1046000002E000BF01F034F82869002640F4007091
:10461000286128694FF6FF7840F480702861286887
:104620004FF0030940F02000286040F61400C4F663
:1046300000000660286906A940F02000286100BF3C
:1046400000BF00BF286840F020002860286840F4C0
:104650008070286020460A96CDE90686CDE9086973
:10466000FDF780F855F80B0007A940F4807045F875
:104670000B0000BF00BF00BFD5F8F87355F80A0063
:1046800040F4807045F80A00012081E8410206A943
:1046900020460A96CDF81880FDF764F8286840F4A3
:1046A0000070286040F27E00C2F2000007800BB06C
:1046B000BDE8F08F81B0ADF80200BDF8020040F215
:1046C0000C01C2F20001088001B0704781B0ADF862
:1046D0000200BDF8020040F27C01C2F20001088035
:1046E00001B07047B0B588B040F2800040F20011D0
:1046F000C2F20000C5F2000100244FF4003204258C
:1047000080E816000121CDE90644C0E90344C0E970
:1047100005458483016280F82440C0E90B4480F899
:104720003840C46380F84040FCF7B8FD002818BF4B
:10473000FCF7DCFB48F20000C3F6F06000900620B6
:10474000CDE901047F20CDE9030540F28000C2F2EB
:10475000000069460594FCF7CFFB002818BFFCF762
:10476000C5FB08B0B0BD00002DE9F04387B04FF0A5
:10477000000941F24C00CDF81890C4F20200016823
:1047800040F6000541F0040101600168C4F600052F
:1047900001F00401019101990168002241F020011A
:1047A000016001684FF47F4601F0200101910199F9
:1047B000016841F001010160016801F0010101910E
:1047C0000199016841F002010160016801F00201F4
:1047D00001910199016841F00801016000684FF4FE
:1047E0007F4100F00800019001982846FDF790F8FD
:1047F00005F580642046042100224FF00408FDF7EF
:1048000087F8029602AE012728463146CDE90379A2
:10481000CDF81490FCF7A6FF4FF090403146CDE95B
:1048200002790497FCF79EFF0720CDE90209A5F560
:10483000806031460497FCF795FF20463146CDE96C
:104840000287CDE90479FCF78DFF07B0BDE8F0835E
:10485000B0B59AB001A83421FBF7A3FE40F2EC00FA
:1048600044F20045C2F20000C4F2010541F63F7176
:1048700000226323C0E90051C0E90223C0E90422F9
:104880008261FEF70FF8002818BFFCF72FFB40F2FB
:10489000EC00C2F20000FEF7ABFC002818BFFCF7EA
:1048A00025FB60200E900A200F9040F2EC000024BF
:1048B000C2F200000EA90022CDE91044CDE9124455
:1048C0001494FEF7A7FA002818BFFCF70FFB4FF46B
:1048D00000500594CDE90344CDE90144CDE9060437
:1048E0000D9440F2EC04C2F2000401A92046FDF749
:1048F00015FF002818BFFCF7F9FA206844F60001FC
:10490000C4F20101884211D0A8422AD141F24C00E0
:10491000C4F20200016841F001010160006800F08A
:1049200001001590159840200EE000BF41F24C00A8
:10493000C4F20200016841F001010160006800F06A
:1049400001001590159880201590022016900020E7
:10495000CDE917000120199015A94FF09040FCF700
:1049600001FF1AB0B0BD0000B0B59AB001A8342163
:10497000FBF717FE40F2381044F60005C2F20000C3
:10498000C4F2010540F69F7100226323C0E9005183
:10499000C0E90223C0E904228261FDF783FF0028F9
:1049A00018BFFCF7A3FA40F23810C2F20000FEF77D
:1049B0001FFC002818BFFCF799FA60200E900A200F
:1049C0000F9040F238100024C2F200000EA900221D
:1049D000CDE91044CDE912441494FEF71BFA0028E7
:1049E00018BFFCF783FA4FF400500594CDE9034457
:1049F000CDE90144CDE906040D9440F23814C2F229
:104A0000000401A92046FDF789FE002818BFFCF725
:104A10006DFA2068A84215D044F20041C4F20101A9
:104A200088422AD141F24C00C4F20200016841F0F0
:104A300001010160006800F0010015901598402008
:104A40000EE000BF41F24C00C4F20200016841F0E8
:104A500001010160006800F00100159015988020A8
:104A60001590022016900020CDE917000120199022
:104A700015A94FF09040FCF775FE1AB0B0BD0000CC
:104A800080B588B040F2841040F200420021C2F2AA
:104A90000000C4F200024F2342F20F7C0791CDE9DF
:104AA00005110291C0E90023C0E9021C0161816186
:104AB000FDF7F8FE002818BFFCF718FA4FF48050F5
:104AC000049040F28410C2F2000004A9FDF7B6FF82
:104AD000002818BFFCF70AFA00200190039040F26A
:104AE0008410C2F2000001A9FDF786FE002818BF5D
:104AF000FCF7FCF908B080BD80B540F2D01043F659
:104B00000001C2F20000C4F2010100234FF00C0CBE
:104B10004FF4165280E80E00C0E90333C0E905C324
:104B2000C0E90733C0E90933FFF70EF9002818BFC1
:104B3000FCF7DCF940F2D010C2F200000021FEF7D1
:104B40009BFD002818BFFCF7D1F940F2D010C2F24B
:104B500000000021FEF748FD002818BFFCF7C6F949
:104B600040F2D010C2F20000FEF71EFD002808BF80
:104B700080BDBDE88040FCF7B9B90000FEE7000049
:104B8000FEE700007047000040F21840C4F6000045
:104B90000169002241F40071016101694FF0030CC9
:104BA00041F480710161016841F020010160C0F8A9
:104BB000FC23016941F02001016100BF00BF00BF7B
:104BC000016841F020010160016841F480710160D9
:104BD0000121C0F8FC13036943F02003036100BF07
:104BE00000BF00BF036843F020030360036843F481
:104BF00080730360036943F400730361036943F442
:104C000080730361036843F020030360C0F8FC1362
:104C1000036943F02003036100BF00BF00BF0368C6
:104C200043F020030360036843F480730360C0F81B
:104C3000FC23026942F02002026100BF00BF00BFF6
:104C4000026842F020020260026842F48072026050
:104C5000026942F400720261026942F480720261E8
:104C6000026842F0200202601022C0F8FC230269B0
:104C700042F02002026100BF00BF00BF026842F0A4
:104C800020020260026842F48072026041F2907277
:104C9000C0F8FC23026942F02002026100BF00BF9D
:104CA00000BF026842F020020260026842F4807293
:104CB0000260026942F400720261026942F4807289
:104CC0000261026842F0200202606022C0F8FC2308
:104CD000026942F02002026100BF00BF00BF02680B
:104CE00042F020020260026842F4807202604FF4D7
:104CF0001C52C0F8FC23026942F02002026100BF8E
:104D000000BF00BF026842F020020260026842F465
:104D100080720260026942F400720261026942F428
:104D200080720261026842F0200202606122C0F8D3
:104D3000FC23026942F02002026100BF00BF00BFF5
:104D4000026842F020020260026842F4807202604F
:104D5000C0F8FC13016941F02001016100BF00BFF0
:104D600000BF016841F020010160016841F48071D9
:104D70000160016941F400710161016941F48071D0
:104D80000161016841F0200101604621C0F8FC1377
:104D9000016941F02001016100BF00BF00BF01684F
:104DA00041F020010160016841F48071016002213D
:104DB000C0F8FC13026942F02002026100BF00BF8C
:104DC00000BF026842F020020260026842F4807272
:104DD0000260026942F400720261026942F4807268
:104DE0000261026842F0200202601322C0F8FC2334
:104DF000026942F02002026100BF00BF00BF0268EA
:104E000042F020020260026842F48072026048F2BE
:104E10001002C0F8FC23026942F02002026100BFC8
:104E200000BF00BF026842F020020260026842F444
:104E300080720260026942F400720261026942F407
:104E400080720261026842F0200202601222C0F801
:104E5000FC23026942F02002026100BF00BF00BFD4
:104E6000026842F020020260026842F4807202602E
:104E700048F2FE02C0F8FC23026942F020020261FF
:104E800000BF00BF00BF026842F02002026002685B
:104E900042F480720260026942F4007202610269A7
:104EA00042F480720261026842F020020260C0F89F
:104EB000FC13016941F02001016100BF00BF00BF88
:104EC000016841F020010160016841F480710160D6
:104ED0004FF4A061C0F8FC13016941F020010161A9
:104EE00000BF00BF00BF016841F020010160016800
:104EF00041F480710160016941F40071016101694F
:104F000041F480710161016841F020010160C0F845
:104F1000FCC3026942F02002026100BF00BF00BF73
:104F2000026842F020020260026842F4807202606D
:104F300041F23002C0F8FC23026942F02002026113
:104F400000BF00BF00BF026842F02002026002689A
:104F500042F480720260026942F4007202610269E6
:104F600042F480720261026842F020020260302244
:104F7000C0F8FC23026942F02002026100BF00BFBA
:104F800000BF026842F020020260026842F48072B0
:104F9000026040F20332C0F8FC23036943F02003AF
:104FA000036100BF00BF00BF036843F0200303603C
:104FB000036843F480730360036943F4007303617F
:104FC000036943F480730361036843F020030360C3
:104FD0003123C0F8FC33036943F02003036100BFB1
:104FE00000BF00BF036843F020030360036843F47D
:104FF00080730360C0F8FC23036943F0200303615E
:1050000000BF00BF00BF036843F0200303600368D4
:1050100043F480730360036943F40073036103691D
:1050200043F480730361036843F020030360322379
:10503000C0F8FC33036943F02003036100BF00BFE5
:1050400000BF036843F020030360036843F48073E8
:105050000360C0F8FC23036943F02003036100BF31
:1050600000BF00BF036843F020030360036843F4FC
:1050700080730360036943F400730361036943F4BD
:1050800080730361036843F0200303603323C0F897
:10509000FC33036943F02003036100BF00BF00BF7E
:1050A000036843F020030360036843F480730360E4
:1050B0004FF44073C0F8FC33016941F020010161F5
:1050C00000BF00BF00BF016841F02001016001681E
:1050D00041F480710160016941F40071016101696D
:1050E00041F480710161016841F0200101603421C7
:1050F000C0F8FC13016941F02001016100BF00BF4D
:1051000000BF016841F020010160016841F4807135
:105110000160C0F8FCC3016941F02001016100BFDA
:1051200000BF00BF016841F020010160016841F447
:1051300080710160016941F400710161016941F40C
:1051400080710161016841F0200101603521C0F8E2
:10515000FC13016941F02001016100BF00BF00BFE5
:10516000016841F020010160016841F48071016033
:10517000C0F8FC23016941F02001016100BF00BFBC
:1051800000BF016841F020010160016841F48071B5
:105190000160016941F400710161016941F48071AC
:1051A0000161016841F0200101603621C0F8FC1363
:1051B000016941F02001016100BF00BF00BF01682B
:1051C00041F020010160016841F480710160142107
:1051D000C0F8FC13016941F02001016100BF00BF6C
:1051E00000BF016841F020010160016841F4807155
:1051F0000160016941F400710161016941F480714C
:105200000161016841F0200101603721C0F8FC1301
:10521000016941F02001016100BF00BF00BF0168CA
:1052200041F020010160016841F480710160C0F823
:10523000FC23016941F02001016100BF00BF00BFF4
:10524000016841F020010160016841F48071016052
:10525000016941F400710161016941F480710161EA
:10526000016841F0200101603821C0F8FC13016998
:1052700041F02001016100BF00BF00BF016841F0A3
:1052800020010160016841F480710160C0F8FC23D5
:10529000016941F02001016100BF00BF00BF01684A
:1052A00041F020010160016841F4807101600169F1
:1052B00041F400710161016941F48071016101688B
:1052C00041F0200101603921C0F8FC13016941F06F
:1052D0002001016100BF00BF00BF016841F0200153
:1052E0000160016841F480710160C0F8FC2301692C
:1052F00041F02001016100BF00BF00BF016841F023
:1053000020010160016841F480710160016941F48C
:1053100000710161016941F480710161016841F02E
:10532000200101603A21C0F8FC13016941F020011D
:10533000016100BF00BF00BF016841F020010160B2
:10534000016841F480710160C0F8FC33016941F0EB
:105350002001016100BF00BF00BF016841F02001D2
:105360000160016841F480710160016941F40071DC
:105370000161016941F480710161016841F020011E
:1053800001603B21C0F8FC13016941F0200101617B
:1053900000BF00BF00BF016841F02001016001684B
:1053A00041F480710160C0F8FCC3016941F0200143
:1053B000016100BF00BF00BF016841F02001016032
:1053C000016841F480710160016941F4007101617B
:1053D000016941F480710161016841F020010160BF
:1053E0003C21C0F8FC13016941F02001016100BFBC
:1053F00000BF00BF016841F020010160016841F475
:1054000080710160C0F8FC23016941F02001016155
:1054100000BF00BF00BF016841F0200101600168CA
:1054200041F480710160016941F400710161016919
:1054300041F480710161016841F0200101603D216A
:10544000C0F8FC13016941F02001016100BF00BFF9
:1054500000BF016841F020010160016841F48071E2
:1054600001604FF4A051C0F8FC13016941F0200124
:10547000016100BF00BF00BF016841F02001016071
:10548000016841F480710160016941F400710161BA
:10549000016941F480710161016841F020010160FE
:1054A0009221C0F8FC13016941F02001016100BFA5
:1054B00000BF00BF016841F020010160016841F4B4
:1054C000807101604FF40071C0F8FC13016941F074
:1054D0002001016100BF00BF00BF016841F0200151
:1054E0000160016841F480710160016941F400715B
:1054F0000161016941F480710161016841F020019D
:1055000001609321C0F8FC13016941F020010161A1
:1055100000BF00BF00BF016841F0200101600168C9
:1055200041F480710160C0F8FC23016941F0200161
:10553000016100BF00BF00BF016841F020010160B0
:10554000016841F480710160016941F400710161F9
:10555000016941F480710161016841F0200101603D
:105560009021C0F8FC13016941F02001016100BFE6
:1055700000BF00BF016841F020010160016841F4F3
:105580008071016040F60D01C0F8FC13016941F023
:105590002001016100BF00BF00BF016841F0200190
:1055A0000160016841F480710160016941F400719A
:1055B0000161016941F480710161016841F02001DC
:1055C0000160C0F8FCC3016941F02001016100BF26
:1055D00000BF00BF016841F020010160016841F493
:1055E0008071016041F21801C0F8FC13016941F0BB
:1055F0002001016100BF00BF00BF016841F0200130
:105600000160016841F480710160016941F4007139
:105610000161016941F480710161016841F020017B
:1056200001600721C0F8FC13016941F0200101610C
:1056300000BF00BF00BF016841F0200101600168A8
:1056400041F48071016040F27311C0F8FC130169EC
:1056500041F02001016100BF00BF00BF016841F0BF
:1056600020010160016841F4807101607047000011
:105670002DE9F04F81B040F21844C4F600042069CF
:105680004FF0120940F4007020612069002540F4B9
:10569000807020612068112640F020002060E32007
:1056A000C4F8FC0320694FF0130B40F02000206188
:1056B00000BF00BF00BF2068102740F0200020601E
:1056C00020684FF0070840F48070206043F2080023
:1056D000C4F8FC03206940F02000206100BF00BF37
:1056E00000BF206840F020002060206840F48070F7
:1056F0002060206940F400702061206940F48070CF
:105700002061206840F020002060E720C4F8FC03FE
:10571000206940F02000206100BF00BF00BF20686A
:1057200040F020002060206840F480702060C4F8C1
:10573000FC93206940F02000206100BF00BF00BF43
:10574000206840F020002060206840F480702060D5
:10575000206940F400702061206940F4807020616D
:10576000206840F020002060EF20C4F8FC0320698E
:1057700040F02000206100BF00BF00BF206840F063
:1057800020002060206840F48070206041F23120C9
:10579000C4F8FC03206940F02000206100BF00BF76
:1057A00000BF206840F020002060206840F4807036
:1057B0002060206940F400702061206940F480700E
:1057C0002061206840F0200020600120C4F8FC0324
:1057D000206940F02000206100BF00BF00BF2068AA
:1057E00040F020002060206840F480702060C4F801
:1057F000FC53206940F02000206100BF00BF00BFC3
:10580000206840F020002060206840F48070206014
:10581000206940F400702061206940F480702061AC
:10582000206840F0200020600220C4F8FC032069BA
:1058300040F02000206100BF00BF00BF206840F0A2
:1058400020002060206840F4807020604FF4E06009
:10585000C4F8FC03206940F02000206100BF00BFB5
:1058600000BF206840F020002060206840F4807075
:105870002060206940F400702061206940F480704D
:105880002061206840F0200020600320C4F8FC0361
:10589000206940F02000206100BF00BF00BF2068E9
:1058A00040F020002060206840F48070206041F2C9
:1058B0003000C4F8FC03206940F02000206100BFE4
:1058C00000BF00BF206840F020002060206840F446
:1058D00080702060206940F400702061206940F4ED
:1058E00080702061206840F0200020600420C4F80F
:1058F000FC03206940F02000206100BF00BF00BF12
:10590000206840F020002060206840F48070206013
:10591000C4F8FC53206940F02000206100BF00BFA4
:1059200000BF206840F020002060206840F48070B4
:105930002060206940F400702061206940F480708C
:105940002061206840F0200020600820C4F8FC039B
:10595000206940F02000206100BF00BF00BF206828
:1059600040F020002060206840F48070206040F209
:105970000720C4F8FC03206940F02000206100BF2C
:1059800000BF00BF206840F020002060206840F485
:1059900080702060206940F400702061206940F42C
:1059A00080702061206840F0200020600920C4F849
:1059B000FC03206940F02000206100BF00BF00BF51
:1059C000206840F020002060206840F48070206053
:1059D000C4F8FC53206940F02000206100BF00BFE4
:1059E00000BF206840F020002060206840F48070F4
:1059F0002060206940F400702061206940F48070CC
:105A00002061206840F0200020600A20C4F8FC03D8
:105A1000206940F02000206100BF00BF00BF206867
:105A200040F020002060206840F480702060C4F8BE
:105A3000FC53206940F02000206100BF00BF00BF80
:105A4000206840F020002060206840F480702060D2
:105A5000206940F400702061206940F4807020616A
:105A6000206840F0200020600C20C4F8FC0320696E
:105A700040F02000206100BF00BF00BF206840F060
:105A800020002060206840F480702060C4F8FC533F
:105A9000206940F02000206100BF00BF00BF2068E7
:105AA00040F020002060206840F480702060206971
:105AB00040F400702061206940F48070206120680B
:105AC00040F0200020600D20C4F8FC03206940F065
:105AD0002000206100BF00BF00BF206840F0200010
